:060000000A128A110C280F
:10000800FE00030EF5000A08F6000A128A118A2873
:100018000A128A110F28F701F801F90183010A125F
:100028008A11232983120313A4002F283F309F0528
:1000380051281F083F3940389F0051281F083F3971
:1000480080389F005128C0309F0451281F083F392D
:1000580040389F0051282408A200A3012308003A31
:10006800031937282A282208003A03191A28013ABE
:1000780003191D28033A03192228013A03192728CE
:100088002A28831603131F126D28831603131F16BD
:100098006D28831603131F126D282008A200A301E0
:1000A8002308003A031959284D282208003A031951
:1000B8004528013A031949284D28831603139F122E
:1000C8007F28831603139F167F28831603139F1216
:1000D8007F28831203132108A200A3012308003AF2
:1000E8000319772869282208003A03196128013A78
:1000F8000319652869289F17831203131F14831691
:1001080003130C17831203130C1308008312031331
:100118000C1F8F289028B9281F0CF200720C0F3979
:10012800003A031D98289928B6280A128A1199219D
:100138000A128A117008F2007108F3000310F30C18
:10014800F20C0310F30CF20C7208F4007408F900B6
:100158000A128A1199210A128A1170080339F200C9
:100168007208F800831203130C138C1DBC28BD28D9
:10017800E1280A128A11A3210A128A11F2007208D0
:10018800F70048307706031DCA28CB28D2287908FB
:100198000A128A11B3210A128A11DE284C30770616
:1001A800031DD728D828DE2878080A128A11B32117
:1001B8000A128A11831203138C1176088A00750EAD
:1001C8008300FE0E7E0E090083120313A2000B2982
:1001D800831603130F088F3940388F00212983169F
:1001E80003130F088F3950388F0021298316031302
:1001F8000F088F3960388F00212970308316031358
:100208008F0421297030831603138F0421292208B3
:10021800A000A1012108003A031913290629200882
:10022800013A0319EC28033A0319F328063A03198B
:10023800FA280C3A0319012906290F14080001307D
:100248000A128A11E8200A128A1183120313A001E4
:10025800A10100300A128A1116200A128A110A1204
:100268008A1142210A128A1100300A128A117E214B
:100278000A128A1138290A128A110C2801308316A9
:100288000317880089018316031385160514831242
:1002980003138501A001A101A20124300A128A11C9
:1002A80060210A128A118B17831203138C1183168B
:1002B80003138C150B17080083120313A30083166E
:1002C8000313871283120313231D6B296C297229C8
:1002D800220883160313940087157829200822041E
:1002E8008316031394008711831203132308210430
:1002F8009400080083120313A1009F1884298529FC
:1003080098292108A000A00DA00D1F082006C339B8
:1003180020069F00023083120313A000A00B92292D
:100328000000831203139F140800831203130C1395
:100338001E08F100831603131E08F00008000A12B5
:100348008A11AC210A128A118312031313080800B8
:1003580083160313141CB129B229AC290800F00034
:0A03680070088312031393000800CD
:08400000FF3FFF3FFF3FFF3FC0
:04400E00D420FF3F7C
:00000001FF
